:020000040000FA
:060000004BEF2AF0120094
:061000004BEF2AF0120084
:0E20000001001A550000D30000002A00000065
:02200E00D9CF28
:10201000E6FFE1CFD9FF0CEC28F0D00EE66E51ECD4
:1020200028F0E552FE0EDBCFE6FF51EC28F0E5523A
:10203000FD0EDBCFE6FF51EC28F0E55216EC28F060
:10204000E552E7CFD9FF1200D9CFE6FFE1CFD9FFA4
:10205000E652DF6A0CEC28F0D00EE66E51EC28F068
:10206000E552FE0EDBCFE6FF51EC28F0E55211EC15
:1020700028F0D10EE66E51EC28F0E552E66A29EC24
:1020800028F0E552DF6E16EC28F0DF5000D0E55264
:10209000E552E7CFD9FF1200D9CFE6FFE1CFD9FF54
:1020A000FE0EDBCFE6FF4FEC19F0E552E66E020EB6
:1020B000E66EADDFE552E552FD0EDBCFE6FF4FECFD
:1020C00019F0E552E66E010EE66EA1DFE552E5522B
:1020D000FC0EDBCFE6FF4FEC19F0E552E66EE66A48
:1020E00096DFE552E552E552E7CFD9FF1200D9CF8E
:1020F000E6FFE1CFD9FFFE0EDBCFE6FF4FEC19F094
:10210000E552E66E040EE66E82DFE552E552FD0E04
:10211000DBCFE6FF4FEC19F0E552E66E050EE66EFA
:1021200076DFE552E552FC0EDBCFE6FF4FEC19F00F
:10213000E552E66E060EE66E6ADFE552E552E552BE
:10214000E7CFD9FF1200D9CFE6FFE1CFD9FFE652A2
:10215000DF6AFE0EDB50020A01E1A0D0040A01E1B1
:1021600081D0030A5FE0010A40E0070A21E0030A88
:1021700003E0010A01E001D1FE0EDBCFE6FF64DFE0
:10218000E552E66E3AEC19F0E552DF6EDF2A3C0EBE
:10219000DF5C01E1DF6ADFCFE6FF4FEC19F0E552CB
:1021A000E66EFE0EDBCFE6FF32DFE552E552E5D00C
:1021B000FE0EDBCFE6FF48DFE552E66E3AEC19F0A3
:1021C000E552DF6EDF2A080EDF5C02E1010EDF6EF2
:1021D000DFCFE6FF4FEC19F0E552E66EFE0EDBCFE7
:1021E000E6FF15DFE552E552C8D0FE0EDBCFE6FF75
:1021F0002BDFE552E66E3AEC19F0E552DF6EDF2A8E
:10220000200EDF5C02E1010EDF6EDFCFE6FF4FEC58
:1022100019F0E552E66EFE0EDBCFE6FFF8DEE55282
:10222000E552ABD0FE0EDBCFE6FF0EDFE552DF6EF0
:102230007F0EDF14E66E3AEC19F0E552DF6EDF2A0E
:102240000D0EDF5C02E1010EDF6EDFCFE6FF4FEC2B
:1022500019F0E552E66EFE0EDBCFE6FFD8DEE55262
:10226000E5528BD0FE0EDBCFE6FFEEDEE552E66EEA
:102270003AEC19F0E552DF6EDF2A640EDF5C01E113
:10228000DF6ADFCFE6FF4FEC19F0E552E66EFE0E97
:10229000DBCFE6FFBCDEE552E5526FD0FE0EDBCFB2
:1022A000E6FFD2DEE552DF6E600EDF14E00BE838A9
:1022B000E840030A42E0010A21E0020A03E0010AC1
:1022C00001E05AD0FE0EDBCFE6FFBEDEE552E66E41
:1022D0003AEC19F0E552DF6EDF2A180EDF5C01E1FF
:1022E000DF6ADFCFE6FF4FEC19F0E552E66EFE0E37
:1022F000DBCFE6FF8CDEE552E5523ED01F0EDF1449
:10230000E66E3AEC19F0E552DF6EDF2A0D0EDF5C67
:1023100002E1010EDF6EDFCFE6FF4FEC19F0E55270
:10232000DF6E400EDF10DF6EDFCFE6FFFE0EDBCF8D
:10233000E6FF6DDEE552E5521FD01F0EDF14E66E9C
:102340003AEC19F0E552DF6EDF2A0D0EDF5C02E198
:10235000010EDF6EDFCFE6FF4FEC19F0E552DF6EC6
:10236000600EDF10DF6EDFCFE6FFFE0EDBCFE6FF95
:102370004EDEE552E55200D000D0E552E552E7CFFF
:10238000D9FF1200D9CFE6FFE1CFD9FFE652020E06
:10239000E66E5ADEE552DF6E600EDF14600804E17F
:1023A000000EDF9ADF9E07D0400EDF14400803E1E5
:1023B000000EDF8ADF8CDFCFE6FF020EE66E27DE3F
:1023C000E552E552E552E552E7CFD9FF1200D9CFE9
:1023D000E6FFE1CFD9FF020EE126E66E35DEE552DB
:1023E000DF6E600EDF14E00BE838E840030A64E0BB
:1023F000010A5BE0020A03E0010A01E082D0DFCFBC
:10240000E6FF3AEC19F0E552E76E010EE7CFDBFF8D
:10241000DB5015E1DE520C0EDD6E010EDBCFE6FF68
:102420004FEC19F0E552E76E010EE7CFDBFFDB5012
:102430006009E76E010EE7CFDBFF63D035D0010EF8
:10244000DB500C0818E2010EDB50F40FE76E010EB2
:10245000E7CFDBFFDBCFE6FF4FEC19F0E552E76E8D
:10246000010EE7CFDBFFDB506009E76E010EE7CF1F
:10247000DBFF47D019D00D0EF36E010EDBCFF4FF5A
:10248000F350F45C11E2010EDBCFE6FF4FEC19F0E4
:10249000E552E76E010EE7CFDBFFDB504009E76E48
:1024A000010EE7CFDBFF2DD02CD01F0EDF14E76E1F
:1024B000010EE7CFDBFF25D01F0EDF14E76E010E04
:1024C000E7CFDBFFDBCFE6FF3AEC19F0E552E76E32
:1024D000010EE7CFDBFFDB500C0FE76E010EE7CFFD
:1024E000DBFFDB50180802E1010EDB6A010EDBCFD7
:1024F000E6FF4FEC19F0E552E76E010EE7CFDBFF88
:1025000000D0010EDBCFE6FF020EE66E80DDE55265
:10251000E552020EE15C02E2E16AE552E16EE5524B
:10252000E7CFD9FF1200D9CFE6FFE1CFD9FF070EE1
:10253000E126020EE66E88DDE552DF6E600EDF14E6
:10254000E00BE838E840E76E010EE7CFDBFFDB5039
:10255000020A0EE0010A0CE0030A03E0010A01E0AE
:102560000FD0DFCFE6FF3AEC19F0E552DF6E08D06E
:102570001F0EDF14E66E3AEC19F0E552DF6E00D064
:10258000DFCFE6FFE66A110E146E550E156E166A61
:1025900014C0E6FF15C0E6FF16C0E6FFD950020FD3
:1025A000E66E000EDA20E66E76EC28F0176E070E67
:1025B000E15E1750FD0EDBCFE9FFFE0EDBCFEAFF39
:1025C000020EDBCFEFFFFD0EDB2AFE0E01E3DB2A5E
:1025D000FD0EDBCFE9FFFE0EDBCFEAFF030EDBCF04
:1025E000EFFFFD0EDB2AFE0E01E3DB2AFD0EDBCF43
:1025F000E9FFFE0EDBCFEAFF3A0EEF6EFD0EDB2A9F
:10260000FE0E01E3DB2A010EE66E1EDDE552E66EEC
:102610003AEC19F0E552DF6EDFCFE6FFE66A110E05
:10262000146E550E156E166A14C0E6FF15C0E6FF4F
:1026300016C0E6FFD950020FE66E000EDA20E66EF5
:1026400076EC28F0176E070EE15E1750FD0EDBCF1B
:10265000E9FFFE0EDBCFEAFF020EDBCFEFFFFD0E40
:10266000DB2AFE0E01E3DB2AFD0EDBCFE9FFFE0EC7
:10267000DBCFEAFF030EDBCFEFFFFD0EDB2AFE0E02
:1026800001E3DB2AFD0EDBCFE9FFFE0EDBCFEAFF25
:102690003A0EEF6EFD0EDB2AFE0E01E3DB2AE66A40
:1026A000D3DCE552E66E3AEC19F0E552DF6EDFCF8F
:1026B000E6FFE66A110E146E550E156E166A14C00A
:1026C000E6FF15C0E6FF16C0E6FFD950020FE66E22
:1026D000000EDA20E66E76EC28F0176E070EE15E4B
:1026E0001750FD0EDBCFE9FFFE0EDBCFEAFF020E37
:1026F000DBCFEFFFFD0EDB2AFE0E01E3DB2AFD0E32
:10270000DBCFE9FFFE0EDBCFEAFF030EDBCFEFFFEF
:10271000FD0EDB2AFE0E01E3DB2A010EDB50030A6D
:102720001EE0010A01E036D0FD0EDBCFE9FFFE0E10
:10273000DBCFEAFF410EEF6EFD0EDB2AFE0E01E35A
:10274000DB2AFD0EDBCFE9FFFE0EDBCFEAFF4D0EED
:10275000EF6EFD0EDB2AFE0E01E3DB2A1BD0FD0E21
:10276000DBCFE9FFFE0EDBCFEAFF500EEF6EFD0E72
:10277000DB2AFE0E01E3DB2AFD0EDBCFE9FFFE0EB6
:10278000DBCFEAFF4D0EEF6EFD0EDB2AFE0E01E3FE
:10279000DB2A00D0FD0EDBCFE9FFFE0EDBCFEAFF28
:1027A000EF6A010EDB50146E070EE15C03E200D00D
:1027B000E16AE552E16E1450E552E7CFD9FF12000D
:1027C000D9CFE6FFE1CFD9FF070EE126020EE66E74
:1027D0003BDCE552DF6E600EDF14E00BE838E840CA
:1027E000E76E010EE7CFDBFFDB50020A0EE0010AC5
:1027F0000CE0030A03E0010A01E00FD0DFCFE6FF9F
:102800003AEC19F0E552DF6E08D01F0EDF14E66EC9
:102810003AEC19F0E552DF6E00D0DFCFE6FFE66A52
:10282000110E146E550E156E166A14C0E6FF15C013
:10283000E6FF16C0E6FFD950020FE66E000EDA2062
:10284000E66E76EC28F0176E070EE15E1750FD0E6F
:10285000DBCFE9FFFE0EDBCFEAFF020EDBCFEFFF9F
:10286000FD0EDB2AFE0E01E3DB2AFD0EDBCFE9FFC6
:10287000FE0EDBCFEAFF030EDBCFEFFFFD0EDB2A00
:10288000FE0E01E3DB2AFD0EDBCFE9FFFE0EDBCF00
:10289000EAFFEF6A010EDB50146E070EE15C03E203
:1028A00000D0E16AE552E16E1450E552E7CFD9FF5E
:1028B0001200D9CFE6FFE1CFD9FF060EE126030EC5
:1028C000E66E24EC10F0E552E66E3AEC19F0E552B3
:1028D000DF6EDF50070A01E100D1010A01E1D5D026
:1028E000030A01E1AAD0010A01E17FD0070A55E0FD
:1028F000010A2BE0030A01E018D1FD0EDBCFE9FF4E
:10290000FE0EDBCFEAFF4D0EEF6EFD0EDB2AFE0E54
:1029100001E3DB2AFD0EDBCFE9FFFE0EDBCFEAFF92
:102920006F0EEF6EFD0EDB2AFE0E01E3DB2AFD0EBD
:10293000DBCFE9FFFE0EDBCFEAFF6E0EEF6EFD0E82
:10294000DB2AFE0E01E3DB2AF0D0FD0EDBCFE9FF30
:10295000FE0EDBCFEAFF540EEF6EFD0EDB2AFE0EFD
:1029600001E3DB2AFD0EDBCFE9FFFE0EDBCFEAFF42
:10297000750EEF6EFD0EDB2AFE0E01E3DB2AFD0E67
:10298000DBCFE9FFFE0EDBCFEAFF650EEF6EFD0E3B
:10299000DB2AFE0E01E3DB2AC8D0FD0EDBCFE9FF08
:1029A000FE0EDBCFEAFF570EEF6EFD0EDB2AFE0EAA
:1029B00001E3DB2AFD0EDBCFE9FFFE0EDBCFEAFFF2
:1029C000650EEF6EFD0EDB2AFE0E01E3DB2AFD0E27
:1029D000DBCFE9FFFE0EDBCFEAFF640EEF6EFD0EEC
:1029E000DB2AFE0E01E3DB2AA0D0FD0EDBCFE9FFE0
:1029F000FE0EDBCFEAFF540EEF6EFD0EDB2AFE0E5D
:102A000001E3DB2AFD0EDBCFE9FFFE0EDBCFEAFFA1
:102A1000680EEF6EFD0EDB2AFE0E01E3DB2AFD0ED3
:102A2000DBCFE9FFFE0EDBCFEAFF750EEF6EFD0E8A
:102A3000DB2AFE0E01E3DB2A78D0FD0EDBCFE9FFB7
:102A4000FE0EDBCFEAFF460EEF6EFD0EDB2AFE0E1A
:102A500001E3DB2AFD0EDBCFE9FFFE0EDBCFEAFF51
:102A6000720EEF6EFD0EDB2AFE0E01E3DB2AFD0E79
:102A7000DBCFE9FFFE0EDBCFEAFF690EEF6EFD0E46
:102A8000DB2AFE0E01E3DB2A50D0FD0EDBCFE9FF8F
:102A9000FE0EDBCFEAFF530EEF6EFD0EDB2AFE0EBD
:102AA00001E3DB2AFD0EDBCFE9FFFE0EDBCFEAFF01
:102AB000610EEF6EFD0EDB2AFE0E01E3DB2AFD0E3A
:102AC000DBCFE9FFFE0EDBCFEAFF740EEF6EFD0EEB
:102AD000DB2AFE0E01E3DB2A28D0FD0EDBCFE9FF67
:102AE000FE0EDBCFEAFF530EEF6EFD0EDB2AFE0E6D
:102AF00001E3DB2AFD0EDBCFE9FFFE0EDBCFEAFFB1
:102B0000750EEF6EFD0EDB2AFE0E01E3DB2AFD0ED5
:102B1000DBCFE9FFFE0EDBCFEAFF6E0EEF6EFD0EA0
:102B2000DB2AFE0E01E3DB2A00D0FD0EDBCFE9FF3E
:102B3000FE0EDBCFEAFF2E0EEF6EFD0EDB2AFE0E41
:102B400001E3DB2AFD0EDBCFE9FFFE0EDBCFEAFF60
:102B5000200EEF6EFD0EDB2AFE0E01E3DB2A040ED3
:102B6000E66E24EC10F0E552E66E84DBE552DF6E93
:102B7000DFCFE6FFE66A110E146E550E156E166A6B
:102B800014C0E6FF15C0E6FF16C0E6FFD950010FDE
:102B9000E66E000EDA20E66E76EC28F0176E070E71
:102BA000E15E1750FD0EDBCFE9FFFE0EDBCFEAFF43
:102BB000010EDBCFEFFFFD0EDB2AFE0E01E3DB2A69
:102BC000FD0EDBCFE9FFFE0EDBCFEAFF020EDBCF0F
:102BD000EFFFFD0EDB2AFE0E01E3DB2AFD0EDBCF4D
:102BE000E9FFFE0EDBCFEAFF200EEF6EFD0EDB2AC3
:102BF000FE0E01E3DB2A050EE66E24EC10F0E55232
:102C0000E66E38DBE552DF6EDF500C0A01E1D7D10A
:102C1000070A01E1ACD1010A01E181D1030A01E116
:102C200056D1010A01E12BD10F0A01E100D1010ABD
:102C300001E1D5D0030A01E1AAD0010A01E17FD068
:102C4000070A55E0010A2BE0030A01E0E0D1FD0E7E
:102C5000DBCFE9FFFE0EDBCFEAFF4A0EEF6EFD0E83
:102C6000DB2AFE0E01E3DB2AFD0EDBCFE9FFFE0EC1
:102C7000DBCFEAFF610EEF6EFD0EDB2AFE0E01E3F5
:102C8000DB2AFD0EDBCFE9FFFE0EDBCFEAFF6E0E87
:102C9000EF6EFD0EDB2AFE0E01E3DB2AB8D1FD0E3E
:102CA000DBCFE9FFFE0EDBCFEAFF460EEF6EFD0E37
:102CB000DB2AFE0E01E3DB2AFD0EDBCFE9FFFE0E71
:102CC000DBCFEAFF650EEF6EFD0EDB2AFE0E01E3A1
:102CD000DB2AFD0EDBCFE9FFFE0EDBCFEAFF620E43
:102CE000EF6EFD0EDB2AFE0E01E3DB2A90D1FD0E16
:102CF000DBCFE9FFFE0EDBCFEAFF4D0EEF6EFD0EE0
:102D0000DB2AFE0E01E3DB2AFD0EDBCFE9FFFE0E20
:102D1000DBCFEAFF610EEF6EFD0EDB2AFE0E01E354
:102D2000DB2AFD0EDBCFE9FFFE0EDBCFEAFF720EE2
:102D3000EF6EFD0EDB2AFE0E01E3DB2A68D1FD0EED
:102D4000DBCFE9FFFE0EDBCFEAFF410EEF6EFD0E9B
:102D5000DB2AFE0E01E3DB2AFD0EDBCFE9FFFE0ED0
:102D6000DBCFEAFF700EEF6EFD0EDB2AFE0E01E3F5
:102D7000DB2AFD0EDBCFE9FFFE0EDBCFEAFF720E92
:102D8000EF6EFD0EDB2AFE0E01E3DB2A40D1FD0EC5
:102D9000DBCFE9FFFE0EDBCFEAFF4D0EEF6EFD0E3F
:102DA000DB2AFE0E01E3DB2AFD0EDBCFE9FFFE0E80
:102DB000DBCFEAFF610EEF6EFD0EDB2AFE0E01E3B4
:102DC000DB2AFD0EDBCFE9FFFE0EDBCFEAFF790E3B
:102DD000EF6EFD0EDB2AFE0E01E3DB2A18D1FD0E9D
:102DE000DBCFE9FFFE0EDBCFEAFF4A0EEF6EFD0EF2
:102DF000DB2AFE0E01E3DB2AFD0EDBCFE9FFFE0E30
:102E0000DBCFEAFF750EEF6EFD0EDB2AFE0E01E34F
:102E1000DB2AFD0EDBCFE9FFFE0EDBCFEAFF6E0EF5
:102E2000EF6EFD0EDB2AFE0E01E3DB2AF0D0FD0E75
:102E3000DBCFE9FFFE0EDBCFEAFF4A0EEF6EFD0EA1
:102E4000DB2AFE0E01E3DB2AFD0EDBCFE9FFFE0EDF
:102E5000DBCFEAFF750EEF6EFD0EDB2AFE0E01E3FF
:102E6000DB2AFD0EDBCFE9FFFE0EDBCFEAFF6C0EA7
:102E7000EF6EFD0EDB2AFE0E01E3DB2AC8D0FD0E4D
:102E8000DBCFE9FFFE0EDBCFEAFF410EEF6EFD0E5A
:102E9000DB2AFE0E01E3DB2AFD0EDBCFE9FFFE0E8F
:102EA000DBCFEAFF750EEF6EFD0EDB2AFE0E01E3AF
:102EB000DB2AFD0EDBCFE9FFFE0EDBCFEAFF670E5C
:102EC000EF6EFD0EDB2AFE0E01E3DB2AA0D0FD0E25
:102ED000DBCFE9FFFE0EDBCFEAFF530EEF6EFD0EF8
:102EE000DB2AFE0E01E3DB2AFD0EDBCFE9FFFE0E3F
:102EF000DBCFEAFF650EEF6EFD0EDB2AFE0E01E36F
:102F0000DB2AFD0EDBCFE9FFFE0EDBCFEAFF700E02
:102F1000EF6EFD0EDB2AFE0E01E3DB2A78D0FD0EFC
:102F2000DBCFE9FFFE0EDBCFEAFF4F0EEF6EFD0EAB
:102F3000DB2AFE0E01E3DB2AFD0EDBCFE9FFFE0EEE
:102F4000DBCFEAFF630EEF6EFD0EDB2AFE0E01E320
:102F5000DB2AFD0EDBCFE9FFFE0EDBCFEAFF740EAE
:102F6000EF6EFD0EDB2AFE0E01E3DB2A50D0FD0ED4
:102F7000DBCFE9FFFE0EDBCFEAFF4E0EEF6EFD0E5C
:102F8000DB2AFE0E01E3DB2AFD0EDBCFE9FFFE0E9E
:102F9000DBCFEAFF6F0EEF6EFD0EDB2AFE0E01E3C4
:102FA000DB2AFD0EDBCFE9FFFE0EDBCFEAFF760E5C
:102FB000EF6EFD0EDB2AFE0E01E3DB2A28D0FD0EAC
:102FC000DBCFE9FFFE0EDBCFEAFF440EEF6EFD0E16
:102FD000DB2AFE0E01E3DB2AFD0EDBCFE9FFFE0E4E
:102FE000DBCFEAFF650EEF6EFD0EDB2AFE0E01E37E
:102FF000DB2AFD0EDBCFE9FFFE0EDBCFEAFF630E1F
:10300000EF6EFD0EDB2AFE0E01E3DB2A00D0FD0E83
:10301000DBCFE9FFFE0EDBCFEAFF2E0EEF6EFD0EDB
:10302000DB2AFE0E01E3DB2AFD0EDBCFE9FFFE0EFD
:10303000DBCFEAFF200EEF6EFD0EDB2AFE0E01E372
:10304000DB2A060EE66E24EC10F0E552E66E12D98D
:10305000E552DF6EDFCFE6FFE66A110E146E550E05
:10306000156E166A14C0E6FF15C0E6FF16C0E6FF2F
:10307000D950010FE66E000EDA20E66E76EC28F0ED
:10308000176E070EE15E1750FD0EDBCFE9FFFE0E57
:10309000DBCFEAFF010EDBCFEFFFFD0EDB2AFE0EDA
:1030A00001E3DB2AFD0EDBCFE9FFFE0EDBCFEAFFFB
:1030B000020EDBCFEFFFFD0EDB2AFE0E01E3DB2A63
:1030C000FD0EDBCFE9FFFE0EDBCFEAFFEF6A060E57
:1030D000E15C02E2E16AE552E16EE552E7CFD9FF39
:1030E0001200D9CFE6FFE1CFD9FF080EE1260CECA4
:1030F00028F0D00EE66E51EC28F0E552110EE66E87
:1031000051EC28F0E55211EC28F0D10EE66E51ECAE
:1031100028F0E552010EE66E29EC28F0E552DF6E4C
:10312000E66A29EC28F0E552E76E010EE7CFDBFFF7
:1031300016EC28F0DFCFE6FFE66A110E146E550E8E
:10314000156E166A14C0E6FF15C0E6FF16C0E6FF4E
:10315000D950030FE66E000EDA20E66E76EC28F00A
:10316000176E070EE15E1750FD0EDBCFE9FFFE0E76
:10317000DBCFEAFF030EDBCFEFFFFD0EDB2AFE0EF7
:1031800001E3DB2AFD0EDBCFE9FFFE0EDBCFEAFF1A
:10319000040EDBCFEFFFFD0EDB2AFE0E01E3DB2A80
:1031A000FD0EDBCFE9FFFE0EDBCFEAFF2E0EEF6E4A
:1031B000FD0EDB2AFE0E01E3DB2A060E146E010E65
:1031C000DB5014C0E7FFE75204E0E8427F0BE7065C
:1031D000FCE1030BE76E010EE7CFDBFFDB50190DBF
:1031E000010EF3CFDBFFDBCFE6FFE66A110E146EB4
:1031F000550E156E166A14C0E6FF15C0E6FF16C020
:10320000E6FFD950030FE66E000EDA20E66E76EC8C
:1032100028F0176E070EE15E1750FD0EDBCFE9FFB9
:10322000FE0EDBCFEAFF030EDBCFEFFFFD0EDB2A46
:10323000FE0E01E3DB2AFD0EDBCFE9FFFE0EDBCF46
:10324000EAFF040EDBCFEFFFFD0EDB2AFE0E01E3EB
:10325000DB2AFD0EDBCFE9FFFE0EDBCFEAFFEF6AD4
:10326000080EE15C02E2E16AE552E16EE552E7CF69
:10327000D9FF1200D9CFE6FFE1CFD9FFFE0EDB5018
:103280000F0B146EFE0EDB50F00BE8380F0B0A0D1F
:10329000F350142400D0E552E7CFD9FF1200D9CF64
:1032A000E6FFE1CFD9FF0A0E166E16C00CF0FE0E37
:1032B000DBCF07F067EC2AF003C015F00A0E146E9E
:1032C00014C00CF0FE0EDBCF07F067EC2AF00738D5
:0E32D000F00B151000D0E552E7CFD9FF120029
:0232DE00D9CF46
:1032E000E6FFE1CFD9FF040EE126DE6ADE6ADE6A80
:1032F000DD6ADD52DD52FD0EDBCF14F0FE0EDBCFBA
:1033000015F0166A176A15AE02D016681768D9CF7D
:10331000E9FFDACFEAFF030EEB501718E8AE02D050
:10332000173408D01450EE5C1550EE581650EE5875
:103330001750EE580FE20C0EE66E2BEC2AF0E55219
:10334000D9CFE9FFDACFEAFFEE2A000EEE22EE2215
:10335000EE22D1D7040EE15C02E2E16AE552E16EB1
:10336000E552E7CFD9FF1200D9CFE6FFE1CFD9FF71
:10337000E652FD0EDBCF06F0FE0EDBCF07F0090EA6
:10338000061801E1075048E0080E061801E1075051
:1033900040E0070E061801E1075038E0060E061857
:1033A00001E1075030E0050E061801E1075028E062
:1033B000040E061801E1075020E0030E061801E193
:1033C000075018E0020E061801E1075010E0010E48
:1033D000061801E1075008E0065001E1075001E03E
:1033E0001ED03F0EDF6E1BD0060EDF6E18D05B0EB8
:1033F000DF6E15D04F0EDF6E12D0660EDF6E0FD06F
:103400006D0EDF6E0CD07D0EDF6E09D0070EDF6E05
:1034100006D07F0EDF6E03D06F0EDF6E00D0DF1C94
:1034200000D0E552E552E7CFD9FF12000F0EC16E72
:10343000070EB46E030E936E300E926E80680F0E00
:10344000946EF19E8198819A1200D9CFE6FFE1CF68
:10345000D9FF020EE1268250020B01E0010EE824A2
:10346000146E8250010B1424DE6EDD6ADECF14F080
:10347000DDCF15F014C0F3FF15C0F4FF020EE15CC0
:1034800003E200D0E16AE552E16EE552E7CFD9FFF1
:103490001200829C320EE66E75EC2AF0E552828EA6
:1034A000320EE66E75EC2AF0E552829E320EE66E22
:1034B00075EC2AF0E5521200828C320EE66E75EC45
:1034C0002AF0E552828E320EE66E75EC2AF0E55255
:1034D000829E320EE66E75EC2AF0E5521200D9CFCC
:1034E000E6FFE1CFD9FF000EE66EE66AE66EE66A19
:1034F000E66EE66AE66EE66AF30EDBCFE6FFF40EF2
:10350000DBCFE6FFF50EDBCFE6FFF60EDBCFE6FF07
:10351000F70EDBCFE6FFF80EDBCFE6FFF90EDBCFD1
:10352000E6FFFA0EDBCFE6FFFB0EDBCFE6FFFC0E7D
:10353000DBCFE6FFFF0EE66EE66AFD0EDBCFE6FFB1
:10354000FE0EDBCFE6FF010EE66EE66A08D8146ECB
:10355000180EE15E1450E552E7CFD9FF1200D9CF23
:10356000E6FFE1CFD9FFFB0EDBCF60F0FC0EDBCF37
:1035700061F0F90EDBCF62F0FA0EDBCF63F0F70EED
:10358000DBCF64F0F80EDBCF65F0F50EDBCF66F035
:10359000F60EDBCF67F0F30EDBCF68F0F40EDBCF77
:1035A00069F0F10EDBCF6AF0F20EDBCF6BF0EF0EBD
:1035B000DBCF6CF0F00EDBCF6DF0ED0EDBCF6EF0FD
:1035C000EE0EDBCF6FF0EB0EDBCF70F0EC0EDBCF4F
:1035D00071F0E90EDBCF72F0EA0EDBCF73F0E70E8D
:1035E000DBCF74F0E80EDBCF75F0D950FD0FE96E3C
:1035F000FF0EDA20EA6EEE50ED1004E00001766B6B
:10360000776B04D0100E0001766F776B000EE66EBC
:10361000E66A010EE66EE66A100EE66EE66A53D9B9
:10362000146E060EE15E1450E552E7CFD9FF12008A
:10363000010EE66EE66A33DAE552E552D00EE66E2A
:1036400075EC2AF0E5521200020EE66EE66A27DA01
:10365000E552E552D00EE66E75EC2AF0E552120006
:1036600000017895080E7811146E79C015F014C019
:10367000E6FF15C0E6FF13DAE552E552120000013D
:103680007885080E7811146E79C015F014C0E6FF25
:1036900015C0E6FF04DAE552E55212000001789306
:1036A000080E7811146E79C015F014C0E6FF15C02D
:1036B000E6FFF5D9E552E552120000017883080EC5
:1036C0007811146E79C015F014C0E6FF15C0E6FF3E
:1036D000E6D9E552E552120000017891080E781102
:1036E000146E79C015F014C0E6FF15C0E6FFD7D9F7
:1036F000E552E552120000017881080E7811146E2F
:1037000079C015F014C0E6FF15C0E6FFC8D9E55230
:10371000E5521200180EE66EE66AC1D9E552E5528E
:1037200012001C0EE66EE66ABAD9E552E5521200A6
:1037300000017A83040E7A11146E7BC015F014C058
:10374000E6FF15C0E6FFABD9E552E55212000001D5
:103750007A93040E7A11146E7BC015F014C0E6FF44
:1037600015C0E6FF9CD9E552E552120000017A81AE
:10377000040E7A11146E7BC015F014C0E6FF15C05C
:10378000E6FF8DD9E552E552120000017A91040E50
:103790007A11146E7BC015F014C0E6FF15C0E6FF69
:1037A0007ED9E552E5521200D9CFE6FFE1CFD9FF2D
:1037B000020EE126040EDE6EDD6AFB0EDBCF14F096
:1037C000FC0EDBCF15F0DECF16F0DDCF17F0165074
:1037D000145C175015580DE3DECF14F0DDCF15F053
:1037E0001406000E155AFB0E14C0DBFFFC0E15C0AC
:1037F000DBFFFB0EDBCF14F0FC0EDBCF15F000017E
:103800007E51145C7F5115580DE37EC014F07FC0CB
:1038100015F01406000E155AFB0E14C0DBFFFC0E4B
:1038200015C0DBFFFD0EDBCF16F0FE0EDBCF17F071
:10383000FB0EDBCFE9FFFC0EDBCFEAFF010ED890D9
:10384000E936EA36E806FBE1800EE926000EEA22B8
:103850001650EE24146E1750EE20156E800E1412C2
:10386000000E151214C0E6FF15C0E6FF18D9E55288
:10387000E552020EE15C02E2E16AE552E16EE552D8
:10388000E7CFD9FF1200D9CFE6FFE1CFD9FFFD0E78
:10389000DBCF80F0FE0EDBCF81F0FB0EDBCF82F0C2
:1038A000FC0EDBCF83F0F90EDBCF84F0FA0EDBCF1A
:1038B00085F0F70EDBCF86F0F80EDBCF87F0E55210
:1038C000E7CFD9FF1200D9CFE6FFE1CFD9FFD9501A
:1038D000FB0FE96EFF0EDA20EA6E010ED880EE547F
:1038E000000EED5402E200017687FB0EDBCF7EF086
:1038F000FC0EDBCF7FF0FD0EDBCF14F0FE0EDBCF36
:1039000015F0400E1426000E152214C0E6FF15C057
:10391000E6FFFD0EDBCFE6FFFE0EDBCFE6FF400E3F
:10392000E66EE66A000EE66EE66AADDF166E080E1B
:10393000E15E1650D950F90FE96EFF0EDA20EA6EFB
:10394000EE50ED100DE0D950FB0FE96EFF0EDA20BE
:10395000EA6E010EEE1801E1ED5002E100017685FC
:103960000001FF0E621901E1635100E0500EE66EA6
:1039700075EC2AF0E552829C320EE66E75EC2AF068
:10398000E552829E320EE66E75EC2AF0E552000199
:10399000FF0E621901E1635100E07651100B28E13E
:1039A000030EE66EE66A59D9E552E552940EE66ECC
:1039B00075EC2AF0E552030EE66EE66A4ED9E55242
:1039C000E552940EE66E75EC2AF0E552030EE66EB3
:1039D000E66A43D9E552E552960EE66E75EC2AF09A
:1039E000E552020EE66EE66A38D9E552E55230D06D
:1039F000200E7611146E77C015F014C0E6FF15C0C6
:103A0000E6FF4DD8E552E552940EE66E75EC2AF0CD
:103A1000E552200E00017611146E77C015F014C027
:103A2000E6FF15C0E6FF3BD8E552E552960EE66E7E
:103A300075EC2AF0E552200E00017611146E77C065
:103A400015F014C0E6FF15C0E6FF29D8E552E5528F
:103A5000200E00017611146E77C015F014C0E6FF39
:103A600015C0E6FF1CD8E552E552040E0001786F40
:103A7000796B05DEDDDD020E00017A6F7B6B040ED3
:103A80007A11146E7BC015F014C0E6FF15C0E6FF76
:103A900006D8E552E552E552E7CFD9FF1200D9CF5B
:103AA000E6FFE1CFD9FF000EE66EE66AFD0EDBCF42
:103AB000E6FFFE0EDBCFE6FF7BD8E552E552E5528E
:103AC000E552E552E7CFD9FF1200D9CFE6FFE1CFAB
:103AD000D9FF010EE66EE66AFD0EDBCFE6FFFE0EB5
:103AE000DBCFE6FF65D8E552E552E552E552010E1F
:103AF000F36EF46A00D0E552E7CFD9FF1200D9CFB8
:103B0000E6FFE1CFD9FF020EE126D950FD0FE96EA5
:103B1000FF0EDA20EA6E070EEE16ED6AFD0EDBCF21
:103B200014F0FE0EDBCF15F0030ED89014361536C8
:103B3000E804FBE1400E1412000E151214C0E6FF5B
:103B400015C0E6FFACDFE552E552DE6ADD6ADECF86
:103B500014F0DDCF15F0D890155004E6080E145C73
:103B6000000E15581BE2DECF14F0DDCF15F0D89013
:103B700014361536FB0EDB501424E96EFC0EDB50B8
:103B80001520EA6EEECFE6FFEFCFE6FF9EDFE552AF
:103B9000E552DF2A010E01E3DB2AD9D7020EE15CF0
:103BA00002E2E16AE552E16EE552E7CFD9FF120089
:103BB000D9CFE6FFE1CFD9FFFB0EDB50E8B0828C16
:103BC000E8A0829C320EE66E75EC2AF0E552000108
:103BD000FF0E621901E1635100E07651100B0AE01B
:103BE000FD0EDBCFE6FFFE0EDBCFE6FF82D8E5520F
:103BF000E5521CD0FD0EDBCF14F0FE0EDBCF15F02E
:103C0000040ED89015321432E804FBE114C0E6FF2C
:103C100015C0E6FF22D8E552E552FD0EDBCFE6FFE8
:103C2000FE0EDBCFE6FF19D8E552E552E552E7CFAD
:103C3000D9FF1200829E010EE66E75EC2AF0E55265
:103C4000828E0A0EE66E75EC2AF0E552829E640EB4
:103C5000E66E75EC2AF0E5521200D9CFE6FFE1CF0F
:103C6000D9FF010EE76EFD0EDBCF14F0FE0EDBCFA9
:103C700015F0E7501416156A1450E8B08080E8A0DB
:103C80008090FD0EDBCF14F0FE0EDBCF15F0D89048
:103C900015321432010E1414E8B08082E8A080922C
:103CA000FD0EDBCF14F0FE0EDBCF15F0D8901532F1
:103CB0001432D89015321432010E1414E8B08084F6
:103CC000E8A08094FD0EDBCF14F0FE0EDBCF15F0E4
:103CD000030ED89015321432E804FBE1010E1414DF
:103CE000E8B08086E8A08096A5DFE552E7CFD9FF4F
:103CF0001200D9CFE6FFE1CFD9FF9CDFE552E7CF35
:103D0000D9FF1200D9CFE6FFE1CFD9FFFE0EDBCFFE
:103D100014F0156A14BE156814C0E6FF15C0E6FF5E
:103D2000D4DEE552E552E552E7CFD9FF1200D9CFF4
:103D3000E6FFE1CFD9FF040EE126020EDE6EDD6A5A
:103D4000DB6A030EDB6A020EDB6A030EDB6A020E1D
:103D5000DBCF14F0030EDBCF15F0DECF16F0DDCF96
:103D600017F015501718E8AE02D0173404D01650CB
:103D7000145C1750155818E2020EDBCF14F0030E36
:103D8000DBCF15F0FD0EDB501424E96EFE0EDB5088
:103D90001520EA6EEF50E66EB5DFE552020EDB2A23
:103DA000030E01E3DB2AD3D7040EE15C02E2E16AF1
:103DB000E552E16EE552E7CFD9FF1200D9CFE6FF19
:103DC000E1CFD9FFFD0EDBCFE9FFFE0EDBCFEAFF2F
:103DD000EF500EE0FD0EDBCFE9FFDB2AFE0EDBCF5E
:103DE000EAFF01E3DB2AEF50E66E8CDFE552EAD70B
:103DF000E552E7CFD9FF120000018C6B300E926EB6
:103E0000F00E936EEF0E886F88C081FF040E896FED
:103E10008951000822E28851FE0BE842886F88C071
:103E200081FF050EE66EE66A6FEC19F0E552E55289
:103E30008150100B09E08150200B06E08150400BAF
:103E400003E08150800B01E10AD800018C0502E1FA
:103E50008D5104D08905896FDBD7CED71200F00EC3
:103E6000936E81CF8BF000018B158A6F0F0E881532
:103E7000886F88518A11886F81CF8BF0F00E8B1577
:103E80008A6FF00E8A5D01E0F7D7936A06D88EC07C
:103E90008DF00001010E8C6F120000018F6B100E6F
:103EA0008F5D14E28F51EA6AD30FE96E000EEA22A9
:103EB000EF50885D08E18F51EA6AE30FE96E000E6A
:103EC000EA22EFCF8EF08F298F6FE9D78EC081FF66
:103ED000640EE66EE66A6FEC19F0E552E5521200E8
:103EE0000001906B070E905D1DE286DF0001916F6F
:103EF0009051EA6A920FE96E000EEA2291C0EFFF3C
:103F00009051EA6A920FE96E000EEA22EF504608DD
:103F100002E108D004D091C0E6FFF4DEE5520001D2
:103F2000902BE0D79051EA6A920FE96E000EEA22D8
:103F3000EF6A12000001906B070E905D16E290513F
:103F4000EA6A920FE96E000EEA22EF50E66EDADEC0
:103F5000E55200019029EA6A920FE96E000EEA220A
:103F6000EF5001E102D0902BE7D71200D9CFE6FF46
:103F7000E1CFD9FFE652F250800B01E0010EDF6E77
:103F8000F29EA69EA69CA684FE0EDB50A96EFD0E98
:103F9000DB50A86E550EA76EAA0EA76EA682A6B21B
:103FA000FED7A694DF50E8B0F28EE8A0F29EE5526C
:103FB000E552E7CFD9FF1200D9CFE6FFE1CFD9FF15
:103FC000A69CA69EFE0EDB50A96EA680A85000D02F
:103FD000E552E7CFD9FF1200D9CFE6FFE1CFD9FFF5
:103FE000F9C014F0FAC015F0D89014361536FE0E4C
:103FF000DB50186E196A14C0E6FF15C0E6FF18C042
:10400000E6FF19C0E6FF25EC1AF0E552E7CF19F0FC
:10401000E552E7CF18F0E552E7CF15F0E552E7CFCC
:1040200014F0F3501814166EF4501914176E14503F
:1040300016100001F96F15501710FA6FF951FE0EA6
:10404000FA13F95102E1FF0EFA1902E0000E01D055
:10405000010E00D0E552E7CFD9FF1200D9CFE6FF1D
:10406000E1CFD9FFFBC014F0FCC015F0D890143696
:104070001536FE0EDB50186E196A14C0E6FF15C027
:10408000E6FF18C0E6FF19C0E6FF25EC1AF0E5527E
:10409000E7CF19F0E552E7CF18F0E552E7CF15F07A
:1040A000E552E7CF14F0F3501814166EF4501914BB
:1040B000176E145016100001FB6F15501710FC6F8F
:1040C000FB51FE0EFC13FB5102E1FF0EFC1902E056
:1040D000000E01D0010E00D0E552E7CFD9FF12004B
:1040E000000EE66EE66AE66EE66AD4EC1BF0E55278
:1040F000E552E552E552A20EE66E000EE66E59EC70
:1041000014F0E552E552A20EE66E000EE66E56DEA3
:10411000E552E5521200010EE66EE66A000EE66E0A
:10412000E66AD4EC1BF0E552E552E552E552B20ED8
:10413000E66E000EE66E93EC12F0E552E5520001D9
:10414000B16FB20EE66E000EE66E38DEE552E55255
:104150001200010EE66EE66A0C0EE66EE66AD4EC1C
:104160001BF0E552E552E552E552CE0EE66E000E2A
:10417000E66E71EC18F0E552E552CE0EE66E000EDA
:10418000E66E1CDEE552E552120016EC1AF027EC42
:1041900028F0270EE66EF8EC27F0E5528150080B68
:1041A00001E0010EE66EE66A8150040B01E0010EAB
:1041B000E66EE66A8150020B01E0010EE66EE66AE9
:1041C0008150010BE66EE66A8050040B01E0010E9F
:1041D000E66EE66A8050020B01E0010EE66EE66ACA
:1041E0006FEC1AF0146E0C0EE15E1450000EE66EC9
:1041F000E66A020EE66EE66A100EE66EE66A63ECAA
:104200001CF0146E060EE15E145018EC1BF098ECD6
:104210001BF00001010EF56F020EF66FF76B000147
:104220009D6B9E6B9F6BA06B5BDF75DF92DF000168
:10423000F75101E004D054DF6EDF8BDF00D0F5C012
:10424000E6FFCADEE552010B4EE00001F551166EA5
:10425000176A16C0E6FF17C0E6FF25EC1AF0E55214
:10426000E7CF17F0E552E7CF16F0F3501614146EAF
:10427000F4501714156E1450151035E10001F75164
:10428000060A29E0030A21E0010A19E0070A11E001
:10429000010A09E0030A01E024D0020EE66EA3EC55
:1042A00010F0E5521ED0010EE66EA3EC10F0E552C0
:1042B00018D0030EE66EA3EC10F0E55212D0040EF7
:1042C000E66EA3EC10F0E5520CD0050EE66EA3EC02
:1042D00010F0E55206D0060EE66EA3EC10F0E552A3
:1042E00000D0FEDE18DFF6C0E6FFB8DEE552010BB7
:1042F0006CE0060E0001F75D67E2F72BF751060A46
:1043000051E0030A42E0010A33E0070A25E0010A0E
:1043100016E0030A08E0010A01E051D04EEC1BF060
:104320006CEC1BF04CD0010EE66EE66AE66EE66AB7
:10433000D4EC1BF0E552E552E552E55240D0010EB7
:10434000E66EE66A040EE66EE66AD4EC1BF0E55211
:10435000E552E552E55233D0000EE66EE66AE66EAF
:10436000E66AD4EC1BF0E552E552E552E55227D05F
:10437000000EE66EE66A050EE66EE66AD4EC1BF009
:10438000E552E552E552E5521AD0000EE66EE66AB5
:10439000080EE66EE66AD4EC1BF0E552E552E552F3
:1043A000E5520DD0000EE66EE66A0D0EE66EE66A88
:1043B000D4EC1BF0E552E552E552E55200D05DEC3D
:0E43C0001BF07BEC1BF001D0F76B31D7120025
:0243CE0023ECDE
:1043D00027F0FB0EDBCFF3FFDB06F35000090AE00A
:1043E00071EC27F0FA0EDCEC27F0F3E1151CF1E19B
:1043F000010E01D0000E52EF27F023EC27F03B0E08
:10440000E12402E3E168E652E16E010EDB6A020E8E
:10441000DB6AF90EDBCFF6FFFA0EDBCFF7FFFB0E00
:10442000DBCFF8FF0800F550DF6EDF5002E176EFDA
:1044300026F0250EDF5C02E069EF26F0030EDB6A52
:10444000040EDB6A050EDB6A060EDB6A070EDB6A0A
:104450008BEC26F02D0EDF5C0CE02B0EDF5C09E010
:10446000200EDF5C06E0230EDF5C03E0300EDF5C35
:104470001AE1DF50300A14E0130A0FE0030A0AE0E1
:104480000B0A05E0060AE4E1030EDB80E1D7030E28
:10449000DB82DED7030EDB84DBD7030EDB86D8D7C7
:1044A000030EDB88D5D72A0EDF5C1BE187EC26F0F4
:1044B000D5EC26F010E0030EDB8006680768130ECB
:1044C000DBCF0BF0140EDBCF0CF0C8EC29F0040EA0
:1044D00004C0DBFF03D0130EBEEC26F08BEC26F0FD
:1044E0000BD0090EDB6A2CEC27F003E0A0EC27F0E0
:1044F000FAD7090EBEEC26F0030EDBB0DB982E0EC9
:10450000DF5C1BE18BEC26F02A0EDF5C0BE187EC15
:1045100026F0D5EC26F003E1130E10EC27F08BEC1F
:1045200026F00BD0090EDB6A2CEC27F003E0A0ECA0
:1045300027F0FAD7090E10EC27F0680EDF5C07E1D0
:104540008BEC26F0680EDF5C1DE1030E18D0740EB4
:10455000DF5C17E07A0EDF5C14E0480EDF5C06E0FB
:10456000540EDF5C03E05A0EDF5C02E1020E07D05E
:104570006C0EDF5C03E06A0EDF5C04E1010E63ECAD
:1045800027F0C9DBDF506E0A01E17FD31E0A01E18B
:1045900092D1200A01E18FD13F0A01E149D11A0AE3
:1045A00001E146D10D0A01E143D1200A01E140D1E8
:1045B0003A0A01E13DD1200A01E13AD1260A01E19E
:1045C00035D10D0A01E132D11A0A01E1D9D0200A10
:1045D0004AE0300A1FE0460A0EE0250A01E083D3D4
:1045E000D950F90FE96EFF0EDA20EA6E010EEE5E89
:1045F000000EEE5AEE5A71EC27F0250EE66E95DBB2
:1046000003E1151C01E169D36DEC27F001E26BD3E6
:10461000DB2A69D3080EDB6A040EDB50010806E2D0
:10462000040EDB0435EC27F0DB508BDB080EDB508F
:1046300009E0030EDB50010B05E172DB01E04DD315
:10464000080EDB6A64DBEFCFDFFFE5EC27F003E168
:10465000151C01E142D36DEC27F001E3DB2A60DB9E
:1046600001E141D33AD3070EDB5002080FE1B1EC70
:1046700027F0030E78EC27F00E0EEECFDBFF0F0EC7
:10468000EECFDBFF100EEECFDBFF20D0F70EDBCF3F
:1046900017F0F80EDBCF18F0020E175E000E185A56
:1046A000F70E17C0DBFFF80E18C0DBFF17C0E9FFDD
:1046B00018C0EAFF68EC27F0166A0E0E14C0DBFF84
:1046C0000F0E15C0DBFF100E16C0DBFF0E0EDBCF8A
:1046D000E6FF0F0EDBCFE6FF100EDBCFE6FFA3EC0D
:1046E00029F0E552E552E552130E05C0DBFF140E2A
:1046F00006C0DBFF060EDB5005E0130EACEC27F026
:1047000001E26ADBD0EC27F002E2130E37DB93EC18
:1047100027F006E0040EACEC27F002E2050E2EDBDB
:10472000030EDBB005D0FCDA01E0D7D2080EDB6A5D
:10473000090EDB6A0E0EDBCFF6FF0F0EDBCFF7FFA5
:10474000100EDBCFF8FF0800F550DF6EDF5014E0ED
:10475000D6EC27F011E2E5EC27F003E1151C01E1AE
:10476000BCD2BBDB01E3DB2A090EDB2AD9500E0FDA
:10477000E96E000ECBDBE7D7D3DA01E1B4D2ADD2DC
:10478000C6DA110EEECFDBFF120EEDCFDBFF110EFE
:10479000DBCFE6FF120EDBCFE6FF95EC29F0E5520A
:1047A000E552130EF3CFDBFF140EF4CFDBFF060E42
:1047B000DB5004E0130ED0DB01E20EDBD0EC27F07F
:1047C00002E2130EDBDAAFDB05E0040EC5DB02E22A
:1047D000050ED4DA030EDBB005D0A2DA01E07DD2FB
:1047E000080EDB6A090EDB6A110EDBCFE9FF120E41
:1047F000DBCFEAFFEFCFDFFFDF5014E0D7DB12E2C1
:10480000E4DB03E1151C01E168D267DB01E3DB2A8D
:10481000090EDB2A110EDB2ADBCFE9FF120EE8E3DB
:10482000DB2AE6D77DDA01E15ED257D2030EDB8EBA
:10483000070EDB0410E195DB040E5ADB0A0EEECF07
:10484000DBFF0B0EEECFDBFF0C0EEECFDBFF0D0E12
:10485000EECFDBFF6CD0070EDB5003082CE1030E1C
:10486000DBAE0DD0B2DA020E76DAEFCF14F0156AB5
:10487000166A176A14AE39D01568166835D0F70E67
:10488000DBCF15F0F80EDBCF16F0020E155E000E32
:10489000165AF70E15C0DBFFF80E16C0DBFF15C069
:1048A000E9FF16C0EAFFEFCF14F00A0E14C0DBFFD9
:1048B0000B0EDB6A38D0070EDB50020809E1030E4D
:1048C000DBAE04D059DB16AE10D00ED055DB0DD0C8
:1048D000030EDBAE12D079DA020E3DDAF9DA166A8F
:1048E000176A15AE02D016681768E2DA0C0E16C009
:1048F000DBFF0D0E17C0DBFF1AD0F70EDBCF16F073
:10490000F80EDBCF17F0020E165E000E175AF70EE8
:1049100016C0DBFFF80E17C0DBFF16C0E9FF17C09B
:10492000EAFFD6DAC5DA0C0EDB6A0D0EDB6A060E7C
:10493000DB5005E1010EF36E050EF3CFDBFF150E24
:10494000DB6A160EDB6AD950370F146E000EDA20C0
:10495000156E390E14C0DBFF3A0E15C0DBFF380EA2
:10496000DB6A080EDB6A0A0EAEDADF50780A12E064
:10497000200A10E0280A0CE0200A0AE03F0A06E0BC
:104980000D0A02E0200A08E1020E05D0080E03D04D
:10499000080EDF26100E97DA030EDBBE02D0DB9284
:1049A000DB94DB50800B24E08ADAD890030EEB50C6
:1049B000000A08E6000EEE5C000EEE58000EEE58FF
:1049C000000EEE5815E213DA09680A680B680C68E5
:1049D0005DEC29F00A0E00C0DBFF0B0E01C0DBFF0F
:1049E0000C0E02C0DBFF0D0E03C0DBFF2D0E08D046
:1049F000030EDBA202D02B0E03D0DBA408D0200EC6
:104A0000F36E170EF3CFDBFF150EDB2A02D0170E65
:104A1000DB6A050EDB5003E1B7D901E189D0000E56
:104A2000146E550E156E000E166E070EDBCF17F0C6
:104A3000186A196A1A6A17C009F018C00AF019C072
:104A40000BF01AC00CF0D3D9F5EC29F01450002467
:104A5000F36E15500120F46E16500220F86EF4CF5C
:104A6000F7FFF3CFF6FF0800090EF5CFDBFF580E76
:104A7000DF5C0FE1610EF36E090E7BD90AE3200EB5
:104A8000146E090EDBCFE7FF1450E75E090EE7CF87
:104A9000DBFF070EDBCF14F0156A166A176A0FDA10
:104AA00014C009F015C00AF016C00BF017C00CF0C6
:104AB000EECF04F0EECF05F0EECF06F0EFCF07F02B
:104AC000F5EC29F007C0EDFF06C0EDFF05C0EDFFD6
:104AD00004C0EFFF390EDBCFE9FFDB063A0EDBCF78
:104AE000EAFF01E2DB06090EDBCFEFFF150EDB2A42
:104AF0004BD995E1030EDBA61DD06F0EDF5C06E1FE
:104B0000C1D918E3150EDB285BDA14D0780EDF5C10
:104B100009E0580EDF5C06E0620EDF5C03E0420E47
:104B2000DF5C08E1020EF36E160EF3CFDBFF02D05E
:104B3000150EDB6A030EDB50100B0EE0040EDBCF0C
:104B400014F0050EDB50D880145406E2060EDB503C
:104B500003E1040EDB5034DA95D90AE2050EDBCF0F
:104B6000E7FF150EDB50E75E050EE7CFDBFF02D057
:104B7000050EDB6A040EDBCF14F0160E45D9D88083
:104B8000145414E2160EDBCFE6FF150EDBCFE6FF62
:104B9000040EDBCFE6FF050EDB50E552E75CE55285
:104BA000D880E754E552D880E7545FD9030EDB5034
:104BB000010B0BE1080EDB5008E0B2D801E08DD00C
:104BC000080EDB50BED8080EDB6A170EDB5007E07C
:104BD00088D9170EF1D903E1151C01E17ED0160E1C
:104BE000DB5016E07ED9300EE66E9FD802E1151C30
:104BF00074E077D9DFCFE6FF1BEC29F0E552E552F0
:104C0000E552F4CF15F00001F31C02E1151C65E03C
:104C1000050EDBCF14F0160EDB50D880145409E2D9
:104C2000050EDBCFE7FF160EDB50E75E050EE7CF84
:104C3000DBFF300EE66E050ECBD94FE1390EDB2AD5
:104C4000DBCFE9FF3A0E01E3DB2ADBCFEAFF090EF7
:104C5000EFCFDBFFDB500EE044D9090EADD902E106
:104C6000151C3BE0390EDB2ADBCFE9FF3A0EEDE302
:104C7000DB2AEBD755D831E1160EDBCFE6FF080E65
:104C8000C3D8E552E7245DD82ED0070EDB50030AC7
:104C90001CE0010A14E0030A07E07BD9DBCFEEFF3A
:104CA000020EDBCFEDFF1FD0F5D8196A17AE02D088
:104CB000186819682CD8BCD819C0EEFF14D0EAD8EF
:104CC00017BE186824D8B4D80ED063D9DBCFEFFF55
:104CD0000AD07BD905E1151C03E1F368F46810D014
:104CE000FCD801E3DB2A79D912EF22F0010EDBCFE9
:104CF00014F0020EDBCF15F014C0F3FF15C0F4FF63
:104D00003B0EE15C02E2E16AE552E16ECBD029D9CB
:104D1000020E78EF27F061D90800F550DF6E12001F
:104D2000200EE66E080EE8EF27F01BEC29F0E552A6
:104D3000E552E552F3CF14F0F4CF15F00001F31C67
:104D40001200146E156AD950010F4DD91450EE2679
:104D50001550ED221200185E000E195AF70E18C0F9
:104D6000DBFFF80E19C0DBFF18C0E9FF19C0EAFF2E
:104D70001200DBCFF4FFF350F45C1200DB50E76E5F
:104D8000040EE7CFDBFF12000A0EDBCF14F00B0E90
:104D9000DBCF15F00C0EDBCF16F00D0EDBCF17F0CE
:104DA00014501510161017101200130EEECFDBFF63
:104DB000140EEDCFDBFF130EDBCF14F0140EDBCFA0
:104DC00015F00001800E15141200F70EDBCF18F05D
:104DD000F80EDBCF19F01200050EDB50E66ED9504D
:104DE000130F01D9E552E750EE6EED6A12000A0E7C
:104DF000DBCF04F00B0EDBCF05F00C0EDBCF06F0A3
:104E00000D0EDBCF07F01200DBCFE6FF150EDBCF78
:104E1000E6FF050EDB50E552E724E552E7241200D9
:104E2000DB50CED8010EF36E060EF3CFDBFF12007F
:104E3000EE50EFCFEAFFE96E16C0EEFF17C0EEFFAF
:104E400018C0EEFF1200D9CFE6FFDACFE6FFE1CFC0
:104E5000D9FFE2CFDAFF1200DFCFE6FFE66A19ECF6
:104E60002AF0E552E552F3501200E76E080EE7CF44
:104E7000DBFF1200EECF14F0EECF15F0EFCF16F0FF
:104E8000176A1200050EDBCF14F0150EDB50D88028
:104E900014541200010EDBCF16F0020EDBCF17F018
:104EA000186A1200E552E5CFDAFFE7CFD9FF12000A
:104EB0000A0E14C0DBFF0B0E15C0DBFF1200D95029
:104EC0000A0FF3EF27F0F36E070EF3CFDBFF1200AC
:104ED000EECF14F0EFCF15F01200010EDB2A020E18
:104EE0001200FC0EDBCFE6FFFD0EDBCFE6FF12006B
:104EF000145E000E155AF70E14C0DBFFF80E15C035
:104F0000DBFF14C0E9FF15C0EAFF1200DA20EA6EE9
:104F1000EF2AEECFF6FF000EEF22EECFF7FFEF22E3
:104F2000EECFF8FF1200040EDBCFE6FF130EDB50CE
:104F3000E552E75C9ADFDB5004DF060EDB5012001F
:104F4000090EDB500A0DF350DF24D00FE76E090E77
:104F5000E7CFDBFF8BEF26F0DB50F36E050EB9EFEA
:104F600026F0F70EDBCF14F0F80EDBCF15F01200B1
:104F7000DFCFE6FF95EF26F028DF030EECDE3AEFF9
:104F800027F0E7EC21F0E552E552E552E552000941
:104F90001200BDDEEE50EFCFEAFFE96E010E120007
:104FA000130EDB50F36E040EB9EF26F0040EDB5047
:104FB000F36E090EB9EF26F0DBCFE6FF95EF26F092
:104FC000E76E050EE7CFDBFF12008BDFB8EF27F0AF
:104FD000DBCFE6FF86DFC1EF27F0D950F90FE96E8E
:104FE000FF0E86EF27F0E96E000EDA20EA6E12005F
:104FF000D9CFE6FFE1CFD9FF3F0EC716C66AC56A13
:10500000C686C78E93829380C68AFE0EDB50C86E1A
:10501000E552E7CFD9FF12000ED8C580C5B0FED744
:10502000120009D8C582C5B2FED7120004D8C584C3
:10503000C5B4FED71200C750040B01E0010E146E78
:105040001F0EC514141002E0F6D7F5D71200C69A49
:105050001200D9CFE6FFE1CFD9FFE652DF6AEBDFDE
:105060000F0EC614080804E00F0EC6140B0801E169
:10507000C586C7A0FED7C950DF6EDDDFFE0EDB049C
:1050800005E1C59AC588C5B8FED704D0C58AC588CC
:10509000C5B8FED7DF5000D0E552E552E7CFD9FFC3
:1050A0001200D9CFE6FFE1CFD9FFC5DFFE0EDB50FE
:1050B000C96EC6AE03D0010E15D012D00F0EC614A5
:1050C000080804E00F0EC6140B080AE1C7B0FED7AB
:1050D000B2DFC5AC03D0020E05D002D0000E02D064
:0C50E000000E00D0E552E7CFD9FF12000F
:0450EC00D9CFE6FF33
:1050F000DACFE6FFE1CFD9FFE2CFDAFFE652E652A0
:10510000E652E652D950F90F146EFF0EDA20156EF2
:10511000020E14C0DBFF030E15C0DBFF020EDBCF57
:10512000E6FF030EDBCFE6FFF90EDBCFE6FFFA0E5C
:10513000DBCFE6FFFB0EDBCFE6FFD950FC0FE66EC0
:10514000FF0EDA20E66EFDEC21F0146E070EE15C36
:1051500002E2E16AE552E16E1450F3CFDEFFF4CFD4
:10516000DDFFFC0EDBCFE9FFFD0EDBCFEAFFEF6AD0
:10517000DECF14F0DDCF15F014C0F3FF15C0F4FF3F
:10518000040EE15C02E2E16AE552E16EE552E5CF30
:08519000DAFFE7CFD9FF12009E
:08519800000EF66E200EF76E0A
:1051A000000EF86E02010900F550056F0900F55078
:1051B000066F03E1056701D03DD00900F550006F8F
:1051C0000900F550016F0900F550026F0900090050
:1051D000F550E96E0900F550EA6E09000900090072
:1051E000F550036F0900F550046F09000900F6CF70
:1051F00007F2F7CF08F2F8CF09F200C2F6FF01C2BA
:10520000F7FF02C2F8FF0201035302E1045307E073
:105210000900F550EE6E0307F8E20407F9D707C25C
:10522000F6FF08C2F7FF09C2F8FF02010507000EEA
:06523000065BBFD712006F
:0A523600D9CFE6FFDACFE6FFE1CFA3
:10524000D9FFE2CFDAFFFB0EDBCF14F0FC0EDBCF91
:1052500015F00001800E15141AE1FB0EDBCFE9FFFB
:10526000FC0EDBCFEAFFEECFF3FFEDCFF4FFEE2A2B
:10527000000EEF22F3CFE9FFF4CFEAFFFD0EDBCF04
:10528000EFFFEF50156AF36E15C0F4FF10D0FB0E60
:10529000DB50FE0806E1FD0EDBCFE6FF59EC2AF0FD
:1052A00005D0FD0EDBCFE6FF8BEC2AF0E552E55290
:0A52B000E5CFDAFFE7CFD9FF1200C7
:0652BA0004500902F3CFCD
:1052C00000F0F4CF01F00A02F3500126000EF420A2
:1052D000026E04500B02F3500226000EF420036EFF
:1052E00004500C02F350032605500902F350012626
:1052F000F4500222000E032205500A02F350022647
:10530000F450032205500B02F35003260650090205
:10531000F3500226F450032206500A02F3500326EB
:0A53200007500902F35003261200A3
:06532A00FE0EE3CFE9FFD7
:10533000FF0EE3CFEAFFF36AF46AEE5203E0F34AAA
:10534000F42AFBD71200FF0EE3CFF8FFE552FF0E61
:10535000E3CFF7FFE552FF0EE3CFF6FFE552E66A33
:10536000E66AE66A0900F55209E0FD0EE32A05E166
:10537000FE0EE32A02E1FF0EE32AF4D7FD0EE3CF8F
:1053800005F0FE0EE3CF06F0FF0EE3CF07F01200AC
:1053900007C013F006C012F006500B02F4CF05F060
:1053A000F3CF04F007500C02F4CF07F0F3CF06F070
:1053B0000B02F3500526F4500622E86A0722125029
:1053C0000C02F3500526F4500622E86A07220CAEC0
:1053D000EEEF29F01250065E1350075A13AE000C80
:0A53E0000B50065E0C50075A000C3B
:0653EA00036A026A016A79
:1053F000006A200EE76ED89004360536063607366A
:1054000000360136023603360950005C0A50015856
:105410000B5002580C50035809E30950005E0A5023
:10542000015A0B50025A0C50035A042AE72EE4D7B3
:02543000120068
:0E543200F36AF46AFF0EE124E96EFF0EE22039
:10544000EA6EED6607D02F0EEF6404D03A0EEF60DF
:0654500001D0F32A120056
:0A545600FF0EE3501B6E480E01D05C
:105460004C0EE76EE72EFED7E76AE72EFED71B2E1F
:06547000F7D70000120056
:0A547600000EF36E00EE00F0080EC9
:1054800001D81200EA6002D0EE6AFCD7F350E9605E
:065490001200EE6AFCD7D9
:0A54960012EE40F022EE40F0F86A3A
:1054A0000F9CCCEC28F08CEC2AF0C5EC20F0FBD75C
:0254B0001200E8
:0E54B200FF0EE350ACBA04D0AF6AAB8EAC8AEA
:0E54C000949CACA2FED7AD6EF36EF46A12009F
:0254CE00036A6F
:1054D000080EE76ED890073603360C50035C02E3E3
:0A54E000036E072AE72EF7D712002B
:0654EA00FF0EE350E84E46
:1054F0001200000000D000D000D0E82EFAD7120031
:105500003031323334353637383961626364656639
:01551000009A
:055511002530326400AA
:02551600120081
:0255180012007F
:06551A00EEEDEBE7DEDD23
:10552000DBD7BEBDBBB77E7D7B77303132333435C0
:10553000363738394142434445460000000000C830
:045540000000000067
:00000001FF
